:020000040800F2
:1000000068060020550200085D0200085F02000833
:100010006102000863020008650200080000000099
:10002000000000000000000000000000670200085F
:1000300069020008000000006B0200086D02000861
:100040006F0200086F0200086F0200086F020008CC
:100050006F0200086F020008ED1300086F0200082D
:100060006F0200086F0200086F0200086F020008AC
:100070006F0200086F0200086F0200086F0200089C
:100080006F0200086F0200086F0200080000000005
:100090000000000000000000000000006F020008E7
:1000A0006F0200086F0200086F0200086F0200086C
:1000B0006F0200086F0200086F0200086F0200085C
:1000C0006F0200086F0200086F0200086F0200084C
:1000D0006F0200086F0200086F02000800000000B5
:1000E0006F0200086F0200086F02000800000000A5
:1000F0000000000000000000000000006F02000887
:10010000000000006F0200086F0200086F02000884
:1001100000000000000000000000000000000000DF
:100120006F0200086F0200086F0200086F020008EB
:100130006F02000800000000000000000000000046
:100140000000000000000000000000006F02000836
:100150006F0200086F0200086F0200086F020008BB
:100160006F0200086F02000800000000000000009D
:10017000000000000000000000000000000000007F
:10018000000000006F0200080000000000000000F6
:100190006F02000800F002F800F04CF80AA090E8A6
:1001A000000C82448344AAF10107DA4501D100F032
:1001B00041F8AFF2090EBAE80F0013F0010F18BFB3
:1001C000FB1A43F001031847E81D0000081E000059
:1001D000103A24BF78C878C1FAD8520724BF30C873
:1001E00030C144BF04680C60704700000023002445
:1001F00000250026103A28BF78C1FBD8520728BF37
:1002000030C148BF0B607047662901F085866429BC
:1002100000F05A80002070471FB501F078FE00F012
:10022000A7FB04000020002101F054FBE0601FBD8B
:1002300010B510BD00F09CFC1146FFF7EDFF01F07A
:1002400001FA00F0BAFC03B4FFF7F2FF03BC00F0C0
:10025000FDFC00000948804709480047FEE7FEE72B
:10026000FEE7FEE7FEE7FEE7FEE7FEE7FEE7FEE766
:1002700004480549054A064B7047000075140008FC
:100280009501000868000020680600206802002030
:10029000680200200FB41CB50C0007AA009001D022
:1002A0002044401E074B7B4469460190069800F0AD
:1002B0003EFB002C03D06946002000F04BFB1CBC29
:1002C0005DF814FBB50600002DE9F0410646002458
:1002D00010687529314616A510D0AFF300800028AC
:1002E00002DA404213A507E031688A0701D512A55A
:1002F00002E0490704D511A5012401E0AFF3008015
:1003000000210A2206F1240709E0B0FBF2FCB0FB51
:10031000F2F302FB1C00303078541846491C0028C8
:10032000F3D123462A463046BDE8F04100F092B8AA
:10033000000000002D0000002B0000002000000045
:100340002DE9F0474FF0000A89460446C0F820A086
:100350002046E1688847002876D0252806D0D4E9D1
:1003600001219047206A401C2062F1E7E1682046A5
:1003700000258847C4F81CA006460027C4F818A02A
:100380002A2E09D0304601F097F838B304EB8708DD
:10039000303EC8F8186019E059F8041B204604EBF9
:1003A00087029161E1688847012F064618D1E0690C
:1003B000002820DA25F020051DE0D8F8180000EB11
:1003C000800006EB40003038C8F818002046E1688D
:1003D0008847064601F070F80028EED1012F0AD0B8
:1003E0002E2E08D12046E16888477F1C0646022F42
:1003F00045F02005C4DBA069002803DA404245F03F
:100400000105A061E80701D025F01005B6B1A6F1FD
:100410004100192802D8203645F400654A46314685
:10042000204625604D46FFF7EFFE58B1012806D063
:10043000ED1D25F0070000F1080989E704E005F14A
:10044000040985E730468AE7206ABDE8F0877047EF
:10045000704770472DE9F0470D469946924604468D
:1004600000F124080168880604D5E06921F0100134
:10047000216000E00120A84201DD471B00E00027C9
:10048000A1697A1902EB0900081AA0612078C00658
:1004900002D42046AFF30080002608E0D4E9012111
:1004A0001AF806009047206A401C761C20624E45D0
:1004B000F4DB2078C0060AD52046AFF3008006E0C2
:1004C000D4E9012130209047206A401C2062381E68
:1004D000A7F10107F4DC07E0D4E9012118F80500D1
:1004E0009047206A401C2062281EA5F10105F3DC1C
:1004F0002046AFF300802078000602D50220BDE838
:10050000F0870120FBE770472DE9FF4F0C461E46A0
:100510004FF0FF378BB0D2E90001DDF860800A9020
:100520008A46C1F30A5505B93D46002108464FF0F9
:100530000000BAF1000F00F4400005DA00EB800083
:100540004FF4400101EA50004FEA9059B9F1010F10
:1005500000DDB9460A9850EA4A000ED044F6105021
:10056000A5F2FF3545432F14B8F1000F1ED0754298
:10057000291E1EDDC9F100021CE0B8F1010F4FF089
:10058000000001D0302103E0F24305E02154401C7B
:10059000B042FBDB30460022002121540B99C1F808
:1005A0000880C1E900200FB0BDE8F08FBD1B6D1CB5
:1005B000DEE74A4600DA694206A800F063FA06ABB5
:1005C00093E8070003AB83E8070050460A9900F060
:1005D00044FB8DE80700A0F500501F3800900398F9
:1005E000002D0ADD42F21F014A460844002303A9F8
:1005F0000390684600F0ADFD09E0A0F500504A46C2
:100600001F38002303A90390684600F0B7FD8DE86A
:1006100007000004000C03D04FF0FF30410800E059
:100620001046B8F1000F03D00022009215461EE0DC
:10063000751E05D400F0A0F9303262556D1EF9D553
:10064000B3460122084302D000227F1C04E0207838
:10065000302801D100227F1E002A099784D01DE096
:10066000112D07DA00F088F9303262556D1C50EA1E
:100670000102F5D1084302D00098C8B10EE0002174
:10068000681E05E0235C625C63542254401E491CD2
:100690008142F7DBAB46A81B401E0990002004F8FE
:1006A0000B000B98099AC0F80880C0E9002B7AE784
:1006B00011264FF0000857E72DE9F04F8846044611
:1006C000D21D22F0070191B0D1E90001CDE90A0164
:1006D00000F0DAFE02460B98C00F01D02D2007E093
:1006E0002068810701D52B2002E0202101EAC0000B
:1006F000032A099001D0072A05DB0346414620461C
:1007000000F080F90BE12078800601D5E06900E077
:100710000620B8F1650F814606D0B8F1660F18D0F3
:10072000B8F1670F70D131E00020B9F1110F0090DE
:1007300001DB112301E009F101030AAA01A90CA8B8
:10074000FFF7E2FEDDE90C70002609F101058346A2
:1007500047E001204B4600904FF000470AAA01A94C
:100760000CA8FFF7D1FEDDE90DB00C995D4600261F
:1007700010B909F101000D18B9EB050003D4C0F15F
:10078000FF3609F10105A5EB09002BE0B9F1010FD6
:1007900001DA4FF001090020B9F1110F009048462D
:1007A00001DD112300E003460AAA01A90CA8FFF706
:1007B000ABFEDDE90C704D4600268346207800072D
:1007C0000AD4AB4500DA5D4601A8012D04DD4119CC
:1007D00011F8011C302907D04F4502DA17F1040F38
:1007E00004DA012082460FE06D1EEEE7002F02DCE6
:1007F000ED1B3E4403E0781CA84200DD7D1CB81BC5
:1008000000F1010A4FF000472078000703D4AA4501
:1008100001DB4FF0FF3A0021B7F1004F0DF1430823
:100820008DF8431024D002202B23002F01DA7F42C1
:100830002D230A21021EA0F1010000DC5FB197FB0D
:10084000F1FC97FBF1F201FB1C7C17460CF1300C1C
:1008500008F801CDEEE7A8F1010003702188090531
:1008600001D5452100E06521A0F1010800F8011C37
:1008700009980FA9A1EB0807FF1D00B1012041193C
:1008800001EBEA70A1693844081A401EA061207883
:10089000C00602D42046AFF30080099828B1D4E9FD
:1008A00001219047206A401C20622078C00622D592
:1008B0002046AFF300801EE0002E04DBB34502DDCE
:1008C00001A8805D00E03020D4E901219047206A32
:1008D000401C2062761CAAF101005FEA000A0AD1DE
:1008E00000F046F8C0680168405CD4E901219047F7
:1008F000206A401C2062281EA5F10105DCDC07E00F
:10090000D4E9012118F8010B9047206A401C2062AD
:10091000381EA7F10107F3DC2046AFF30080032067
:1009200011B041E601694A1C02610878704700B5C0
:100930008FB0CDE901310021059105497944CDE918
:10094000031011466846FFF7FBFC0FB000BD000026
:10095000E5FFFFFF0A6802F8010B0A607047D1E962
:1009600000239A4202D2531C0B60107070470000A3
:10097000004870472400002030B5B0F10A024FEA69
:10098000900E71F100034EEA817EB0EB0E0061EB38
:1009900091014FEA101E4EEA017E10EB0E0041EB72
:1009A00011114FEA102E4EEA016E10EB0E0041EBD2
:1009B00011214FEA104E4EEA014E10EB0E0041EBB2
:1009C0001141401841F100014FEAD00040EA417066
:1009D0004FEAD10110EB80054FEA810444EA90749C
:1009E00044EB01046D1944EB0404521BA3414FF086
:1009F000000348BF0A3200D530BD401C41F1000160
:100A000030BD00002DE9F0411F4604460326016871
:100A1000072A01F4006004DB08B116A505E016A55D
:100A200003E008B115A500E015A521F01000206035
:100A3000A069C01EA0610FB1401EA0612046AFF3A7
:100A400000804FB1D4E9012138469047206A401C0C
:100A50002062C01C206206E0206AFAE7D4E9012186
:100A600015F8010B9047761EF8D22046AFF30080B0
:100A7000BDE8F0814E414E006E616E00494E460069
:100A8000696E66002DE9F047814616468AB0354802
:100A900078440DC88DE80D0032487844801C03ACC2
:100AA0000DC884E80D0041F69B300844372190FBC7
:100AB000F1F290FBF1F5A5F1800501FB12041B3C5E
:100AC00002D56442012000E00020DFF898A08046B3
:100AD0000027FA44AAF1BE0A0EE0E0070AD0324627
:100AE000684607EB470101230AEB810100F046FB52
:100AF0008DE8070064107F1C002CEED1194F7F4455
:100B0000AE3F19E0E80715D007EB04100DF1180A05
:100B100090E80E008AE80E00C068F04201D19819F2
:100B200008903246012306A903A800F027FB03AB77
:100B300083E807006D10641C002DE3D14FF0010322
:100B400032466946B8F1000F03A802D000F001FB5D
:100B500001E000F013FBC9E90001C9F808200AB060
:100B6000BDE8F0870415000000487047040000202D
:100B70007546FFF7F9FFAE4605006946534620F07B
:100B80000700854618B020B5FFF772FBBDE820408E
:100B90004FF000064FF000074FF000084FF0000B39
:100BA00021F00701AC46ACE8C009ACE8C009ACE8EC
:100BB000C009ACE8C0098D46704710B50446AFF3D4
:100BC00000802046BDE81040FFF73DBB4FF0013CE0
:100BD00050F8042B51F8043B9A4221D1A2EB0C03AC
:100BE000934313EACC1317D150F8042B51F8043B6C
:100BF0009A4215D1A2EB0C03934313EACC130BD109
:100C000050F8042B51F8043B9A4209D1A2EB0C0393
:100C1000934313EACC13DBD04FF00000704700BFC2
:100C2000D01A01BAB1FA81F101F0180122FA01F0EB
:100C3000CB40C1F12001DBB2C0B2C01A2CFA01F3E3
:100C4000D11A914311EAC311E6D170470149182026
:100C5000ABBEFEE72600020070475FEA400C08BF0B
:100C600091F0000F4FEA8C234FEAC12243EA515121
:100C70004FEA1C5018BF00F5F0404FEA300018BF93
:100C800041F000415FEA6C5C00F02980BCF1FF3F5D
:100C900008BF40F080407047130C06BF12044FF0AD
:100CA000100C4FF0000C130E04BF12020CF1080CD4
:100CB000130F04BF12010CF1040C930F04BF920038
:100CC0000CF1020CD30F04BF52000CF1010C1146C1
:100CD0004FF00002A0F11F00A0EB0C00704711F0D4
:100CE000004F08BF704731F000413FF4D5AF0B0C07
:100CF00006BF09044FF0100C4FF0000C0B0E04BFA0
:100D000009020CF1080C0B0F04BF09010CF1040CD3
:100D10008B0F04BF89000CF1020CCB0F04BF4900FC
:100D20000CF1010CCCF12003A0EB0C0022FA03F330
:100D300002FA0CF241EA030100F10100704720F0D1
:100D40007F4C80EA030023F07F47ACEB070303F5F9
:100D50007C5300F0004003F1FF032DE980494FEA86
:100D6000154B09B44FEA144325EA0B4E24EA034815
:100D70000FF2042606EB132749083E785FEA320299
:100D800003FB0667C7F5000707FB06F64FEA543773
:100D90004FEAD64606F1020607FB066CCCF1005C72
:100DA0004FEA1C472CEA074C07FB06F40CFB06F540
:100DB00004EB15464FEA961634BF00204FF0004072
:100DC0004FEAD13706FB07FC4FEA1C4C0CFB0BF734
:100DD000D21B03FB0CF761EB07010CFB0EF7B0EB2A
:100DE000074072EB17420CFB08F734BFA2EB074237
:100DF000B2EB074261EB17414FEA0C444FEA91070F
:100E000006FB07FC4FEA1C4C0CFB0BF7B0EBC74092
:100E100072EB573203FB0CF734BFA2EBC742B2EBC5
:100E2000C74261EB57310CFB0EF7B0EBC70072EB1A
:100E300057720CFB08F734BFA2EBC702B2EBC70234
:100E400061EB5771039F4FEA816141EA921104EB14
:100E5000CC044FEAD1374FEA826206FB07FC42EA34
:100E600090124FEA80604FEA1C4C0CFB0BF7D21B30
:100E700003FB0CF761EB07010CFB0EF7B0EB07402F
:100E800072EB17420CFB08F734BFA2EB0742B2EB40
:100E9000074261EB17414FEA8C554FEA910704EB8B
:100EA0009C2406FB07FC4FEA1C4C0CFB0BF7B0EB39
:100EB000C74072EB573203FB0CF734BFA2EBC742BB
:100EC000B2EBC74261EB57310CFB0EF7B0EBC7003A
:100ED00072EB57720CFB08F734BFA2EBC702B2EB00
:100EE000C70261EB577115EB4C254FEA816141EA6E
:100EF00092114FEA82624FEAD13742EA901206FB22
:100F000007FC44F100044FEA80604FEA1C4C0CFBE4
:100F10000BF7D21B03FB0CF761EB07010CFB0EF781
:100F2000B0EB074072EB17420CFB08F734BFA2EBA3
:100F30000742B2EB074261EB174115EB1C154FEA74
:100F4000813141EA92414FEA823242EA90424FEACD
:100F500080304FEA0C7644F1000448EA03434EEA3D
:100F60000B484FF0000EB2EB080C71EB030724BFE7
:100F7000624639464EEB0E0E4FF0000B0018524100
:100F800049414BEB0B0BB2EB080C71EB03077BF108
:100F9000000B24BF624639464EEB0E0E4FF0000B9D
:100FA0000018524149414BEB0B0BB2EB080C71EBB3
:100FB00003077BF1000B24BF624639464EEB0E0E51
:100FC00051EA020718BF46F0010616EB0E7655F1FE
:100FD000000254F1000103D5BDE88901BDE8008895
:100FE000BDE88901BDE80048B619524141EB010155
:100FF000A3F10103704780807F7E7D7C7B7A7978C6
:10100000777676757473727171706F6E6E6D6C6CCD
:101010006B6A6A696868676666656464636362616F
:101020006160605F5F5E5E5D5D5C5C5B5B5A5A59F0
:10103000595858575756565555555454535352525C
:101040005251515050504F4F4F4E4E4D4D4D4C4CB4
:101050004C4B4B4B4A4A4A494949484848474747FD
:10106000474646464545454444444443434343423A
:10107000424242414141002B9C4630D477002BD064
:101080001CB54FEA370703B44FF010004FF01001C2
:10109000BAF1000F06D0BCF1000FDCBF40F0080031
:1010A00040F008014FF000000FBCBDE810400BF10C
:1010B000010BBBF1010F08BF5FEA170722BF12F156
:1010C000010211F101014FF0004143F1000300F072
:1010D000004043EA00007047F9D35708D0E746EADA
:1010E000064613F1400F4FEA16461FDD13F1200F9D
:1010F000DFBF16430A46002120335B42BED0C3F156
:10110000200746EA064602FA07F74FEA164646EA7D
:101110000706C3F1200722FA03F201FA07F721FAC2
:1011200003F14FF0000342EA0702A7E746EA02068E
:1011300046EA06464FEA164646EA0106BCBF46EABC
:101140000646360C4FF000034FF000024FF000014E
:1011500094E72DE9804C9A46934670B491E83800A4
:1011600007C831EA400C48BF34EA430C03D5FFF707
:10117000E6FDFFF780FFF0BCBDE8008C2DE9804C58
:101180009A46934670B491E8380007C810F0804F33
:1011900008BF13F0804F03D100F005F8FFF76BFF95
:1011A000F0BCBDE8008C20F07F4780EA030023F00C
:1011B0007F4C07EB0C03A3F57C5300F00040A3F138
:1011C000FE0392F0000F00F0B38095F0000F00F0E6
:1011D00077802DE901494FEA11404FEA144621EA90
:1011E000004800FB06FC24EA064708FB06F607FB5E
:1011F00008F800FB07F718EB06484CEB164C4FEAD3
:10120000124B18EB07484FEA15464CEB174022EA01
:101210000B4E0BFB06FC25EA06470EFB06F607FB0A
:101220000EFE0BFB07F71EEB064E4CEB164C4FF079
:1012300000061EEB074E4CEB174B18EB0B0840F16A
:10124000000018EB0E0B58EB000840F100008F1A5D
:101250004FF000013CBFC943661B14BFB5EB040C43
:1012600000213CBFC943F61B4FEA17444EEA8E0EDD
:1012700027EA04454FEA1C4704FB07622CEA074CA7
:1012800005FB07F70CFB05F604FB0CFC16EB074609
:1012900042EB174216EB0C4642EB1C421BEB0606D8
:1012A00058EB0202414146EA9E0601D5BDE801899C
:1012B000B619524141EB0101A3F10103BDE80189D7
:1012C0004FEA14454FEA114724EA054621EA074C44
:1012D00005FB07F406FB07F70CFB06F105FB0CFC0E
:1012E00011EB074144EB17444FEA124711EB0C4155
:1012F00044EB1C4422EA074C05FB07F206FB07F708
:101300000CFB06F605FB0CFC16EB074642EB1742FE
:1013100016EB0C4642EB1C456A1854F1000148BF1D
:101320007047B619524141EB0101A3F10103704727
:1013300095F0000F37D04FEA11424FEA144721EAE7
:10134000024624EA074C02FB07F106FB07F70CFBF9
:1013500006F402FB0CFC14EB074441EB17414FEA87
:10136000154714EB0C4441EB1C4125EA074C02FBEA
:1013700007F506FB07F70CFB06F602FB0CFC16EB69
:10138000074645EB174516EB0C4645EB1C42121978
:1013900051F1000148BF7047B619524141EB0101BC
:1013A000A3F1010370474FEA14454FEA114724EABD
:1013B000054621EA074C05FB07F106FB07F70CFB86
:1013C00006F24FF0000605FB0CFC12EB074241EB66
:1013D000174112EB0C4251EB1C4148BF7047921869
:1013E00041EB0101A3F101037047000010B50C4867
:1013F000006800F0010088B10948006840F0010071
:1014000007490860012007490870002000F0DEF954
:1014100005A000F04BFA0EA000F048FA10BD000045
:10142000143C0140000000202A2A2A20454D455244
:1014300047454E43592053485554444F574E205426
:10144000524947474552454421202A2A2A0D0A007D
:1014500046616E20447574792073657420746F2022
:1014600030252028466F726365642053746F70299D
:101470002E0D0A000348006840F47000014908601E
:101480007047000088ED00E003B401984100009827
:1014900050EAC12018BF04204A0D18BF40F00100D7
:1014A00040F2FF72B2EB515F08BF40F0020001282A
:1014B00008BF052002B0704730380A2801D2012049
:1014C00070470020704700000C48006840F48070AE
:1014D0000A4908600A48406B20F01F000849486329
:1014E0000846406B48630846C06840F00300C86087
:1014F0000846806840F00100886070474438024028
:10150000002001400848806840F0080006498860D3
:1015100000BF0548006800F002000028F9D002482A
:10152000C06CC0F30B007047002001400CB50021D7
:1015300001910DE00021009102E00099491C009109
:1015400041F2883200999142F7D30199491C0191E7
:1015500001998142EED30CBD1648006840F48040EA
:10156000144908601448006840F0010012490860FE
:101570001248006840F00100104908600F480C3024
:10158000006840F001000D490C3108600C4800680B
:1015900020F47F404FF0E021C1F8040108480068C2
:1015A000C1F804010846D0F8000240F04000C1F83C
:1015B000000270474438024008380140003C0140B6
:1015C00004E100E01C48006840F003001A4908608C
:1015D0001A48006840F0030018490860084600688F
:1015E00020F4406008600846006840F4006008602D
:1015F0000846006A40F4801008620846006820F03F
:10160000300008600846006840F020000860084686
:10161000006A40F4E06008620948006820F00300B6
:101620000749086006480C30006840F00200044991
:101630000C31086070470000303802400000024062
:10164000000402402DED068B94B0FFF7BBFFFFF7BF
:101650003BFF00F0EFF800F011F9FFF77DFF33A03A
:1016600000F024F960E03A48007818B16420FFF7F0
:101670005DFF59E0FFF746FF054600EE105AB8EE51
:10168000400ADFED340A20EE208A0024B3EE0E9AE1
:1016900078EE498AF5EEC08AF1EE10FA0BDDB2EE73
:1016A000040A28EE800ABCEEC00A10EE100AC4B28A
:1016B000642C00DD6424204600F088F874B918EE2C
:1016C000100A00F0B3FB41EC1A0B02948DED00AB55
:1016D00021A2402104A8FEF7DDFD1EE0642C0ED1FE
:1016E00018EE100A00F0A2FB41EC1A0B02948DEDEB
:1016F00000AB23A2402104A8FEF7CCFD0DE018EEBC
:10170000100A00F093FB41EC1A0B02948DED00AB34
:1017100026A2402104A8FEF7BDFD04A800F0C6F8EB
:101720003220FFF703FF00BF9DE700005B485049F0
:1017300045432076312E305D205374617274696E9A
:10174000672053797374656D2E2E2E0D0A000000EC
:10175000000000200000A53D54656D703A20252E44
:101760003166432C2046616E20447574793A2025F9
:101770006425252028535441424C45290D0A000078
:1017800054656D703A20252E3166432C2046616EDB
:1017900020447574793A202564252520284D415828
:1017A00020434F4F4C290D0A0000000054656D7016
:1017B0003A20252E3166432C2046616E20447574F4
:1017C000793A20256425250D0A00000070B52DED1D
:1017D000088B0446642C00DD64241348008800F064
:1017E00014FA41EC190B00EE104AB8EE400A10EE64
:1017F000100A00F01BFB41EC1B0B9FED0C0B53EC94
:10180000102B00F07DF841EC1A0B53EC192B00F073
:101810000FFA41EC180B00F0CBF985B24FF0804085
:101820004563BDEC088B70BD020000200000000085
:10183000000059400F48006840F001000D49086061
:1018400041F26700090648620B480088401EC862E2
:101850000846806940F0680088610846006A40F0E8
:1018600001000862002048630846006840F001005B
:1018700008607047403802400200002009480068B4
:1018800040F400300749086041F21710064908602B
:10189000081D006842F2080108430349091D086059
:1018A00070470000403802400844004000210BE02F
:1018B00000BF074A126802F08002002AF9D0425C99
:1018C000034B1B1D1A60491C425C002AF0D1704773
:1018D0000044004010B500290AD00878002807D03D
:1018E00005487844FFF772F9002801D0002010BDA8
:1018F0000248784410BD0000EE060000E606000035
:101900002DE9C04130B4DFF8A0C23CEA111418BF81
:101910003CEA131400F0EC8081EA03051CEA111480
:1019200044EAD57418BF1CEA131500F0C780A4EB75
:1019300005044FF0004545EAC12145EAC32341EAC9
:10194000505143EA525304F17F74994204F5003434
:101950004FEAC0204FEAC22208BF904200F09C80AC
:101960004FEA13650FF24016765D4FEA134506FB0A
:1019700005F7C7F1807706FB07F74FEAD737A7FBD4
:1019800003687642C8F58038A7FB06CE38BFA8F1B9
:10199000010807FB08E64FF0000EA6FB028CE6FBF1
:1019A00003CEDCF1000CCEF1004E38BFAEF1010EDB
:1019B000A6FB0C584FF000074FF00005E6FB0E8722
:1019C000A1FB08C6A0FB07CE16EB0E0645F10005ED
:1019D000E1FB076515F1E04E7EBFA4F580345FEAB8
:1019E00046066D4116F1800745F100054FEA1727BD
:1019F0004FEA066647EA0567A6F1DE46B6F1805F64
:101A00004FEA15251FD9384624F0010C05EBC471A7
:101A1000BCF1FE6F01EB0C1102D8F0BCBDE80081F7
:101A200024425CBF01F5801E9EEAC47F02D4F0BC54
:101A3000BDE80081244238D4F0BCA1F1C041BDE82A
:101A4000004100F0EDB94FEAD22242EA43524FEA98
:101A5000D323A7FB02864FEAD02040EA415007FB80
:101A600003661EEA0E0F4FEAD12105FB026658BF3E
:101A7000A6EB0056B6EB00564FEA520E4EEAC37E76
:101A800018EB0E0E56EB530EBDD518EB02085E4157
:101A90007F1C55F10005B6E74FF480154FF00007A5
:101AA0004FF000064FF00008ADE7F0BC4FF000002B
:101AB00001F1C04101F00041BDE8008111EA0C1FB5
:101AC0000CEA131500D00CE013EA0C1F00F025807F
:101AD0004FF00000F0BC81EA030101F00041BDE8D5
:101AE0000081F0BCBDE8004181EA030100F098B933
:101AF000F0BCBDE8004170B500F044F9097EFC3E41
:101B000000F007B881EA03014FF0000001F0004146
:101B1000704781EA030100F083B9F0BCBDE80041E1
:101B20004FF0000021497047FFFDFBF9F7F5F4F293
:101B3000F0EEEDEBE9E8E6E4E3E1E0DEDDDBDAD868
:101B4000D7D5D4D3D1D0CFCDCCCBCAC8C7C6C5C4C6
:101B5000C2C1C0BFBEBDBCBBBAB9B8B7B6B5B4B3DD
:101B6000B2B1B0AFAEADACABAAA9A8A8A7A6A5A4C8
:101B7000A3A3A2A1A09F9F9E9D9C9C9B9A9999988C
:101B80009797969595949393929191908F8F8E8E2F
:101B90008D8C8C8B8B8A89898888878786858584BC
:101BA00084838382828181800000FF070000F87FA8
:101BB0004FEA1153A3F58063D3F11E03A8BFD3F1FD
:101BC000200C08DB4FF0004242EAC12252EA505298
:101BD00032FA03F0704709420BD4102BC4BF002027
:101BE000704703F5787CBCF1FF3F05D04FF0FF3024
:101BF00070474FF00000704770B500F0C3F800BFA9
:101C00004992248000207047F0E7B0FA80F310FA80
:101C100003F10AD0C3F11D0303F580634FEA41507D
:101C20004FEA035202EBD12170474FF0000070479A
:101C3000DFF848C170B51CEA111E1EBF1CEA13155F
:101C40009EEA0C0F95EA0C0F00F06F8081EA030406
:101C500023EA4C134EEAD47E21EA4C1141F4801160
:101C600043F48013AE44A1FB024CA0FB0365AEF12C
:101C70007F7E361955EB0C05A1FB034C4CF100039C
:101C8000A0FB021C16EB0C06654153F10003094250
:101C900018BF46F0010613F4007F0BD14FEA033161
:101CA0004FEA0530340341EA155140EA16506FF00F
:101CB00003020AE04FEAC3214FEAC520F40241EAD9
:101CC000555140EA56506FF0020202EB2E4201EBF2
:101CD000025585EACE710AD05FEA440C18BF24F0A1
:101CE000004450F1000041F1000120EAD47040F2BC
:101CF000FE7C624500D270BDA84214BF4FF0804404
:101D00004FF04044002E08BF0024BEF1806FA8BFF2
:101D1000A1F1C041BDE8704080F282804FF0000028
:101D200001F1C04101F0004170479EEA0C0F0CEA3E
:101D3000131518BF95EA0C0F06D04FF0000081EA8A
:101D4000030E0EF0004170BD00F01CF88900013E4A
:101D500000F007B800F009B84FEA430C5FEA5C5C9A
:101D600008D081EA030100F05BB84FEA410C5FEA5A
:101D70005C5CF6D14FF00000014970470000FF079E
:101D80000000F87F0EF1020E2EF0030E5EF8046BD9
:101D9000364205D4012A43EB030515F5001F12D87E
:101DA000012841EB010C1CF5001F0CD80ED14FEAA5
:101DB000D17C15F5001F0CEB4C0C0CF1020C08BF8C
:101DC0004CEBD37C04E04FF0080C01E04FEAD37CED
:101DD0000CEB4C0526FA05F606F00706B6F1040CE6
:101DE00006D20EEB860CBDE870404CF0010C60474B
:101DF000DFE80CF0090B02024FF000414FF0000049
:101E0000A1F5002170BD19461046012851EB0104CF
:101E100018BFD4F5001484BF002001F0004170BD4C
:101E20000808A0F500114FEA3101704743004FEA5E
:101E3000D30C4FEA3C0C43401FBF40070CF16051EC
:101E400013F0FE4F70471CF0006F03D100200CF020
:101E5000004170470CF0004343EA507010B540EA6F
:101E6000CC0000F00EF800BF000000924FEA000125
:101E7000FFF7D6BF4FF000414FF00000A1F5002161
:101E800070470EF1020E2EF0030E5EF8044B244252
:101E900004D44FEA4102B2F17F4F11D84FEA400318
:101EA000B3F17F4F0CD80ED14FEAD07CB2F17F4F07
:101EB0000CEB4C0C0CF1020C08BF4CEBD17C04E099
:101EC0004FF0080C01E04FEAD17C0CEB4C0324FAF4
:101ED00003F404F00704B4F1040C06D20EEB840CF6
:101EE000BDE810404CF0010C6047DFE80CF007083B
:101EF00002024FF00040A0F5800010BD08464200ED
:101F000018BFD2F1807288BF00F0004010BD4FF0C2
:101F10004070E1EE100A7047FEF7CEBB02400000B1
:101F2000000000A00000000005400000000000C804
:101F3000000000000C4000000000409C0000000079
:101F4000194000000020BCBE00000000344000002A
:101F5000BFC91B8E00000004B5400000504BCFD01D
:101F60006607E2CF010000006C4100003E8251AAEA
:101F7000DFEEA73401000000D9420000DCB5A0E28A
:101F80003A301F97FFFFFFFFB4450000FD25A0C8B2
:101F9000E9A3C14FFFFFFFFFFF3F000000000080EB
:101FA00000000000FF3F0000000000800000000073
:101FB000EC1F00080000002004000000D001000811
:101FC000F01F00080400002064060000EC01000877
:101FD0001C00000043000000F8FFFFFF0C000000A1
:101FE0000E0000000F0000002E0000000000E803BB
:040000050800025598
:00000001FF
