:020000040800F2
:10000000B0460020E90200080B1100088710000824
:1000100009110008430500086913000800000000EA
:10002000000000000000000000000000290200089D
:10003000450500080000000085020008CD110008F9
:100040000303000803030008030300080303000878
:100050000303000803030008030300080303000868
:100060000303000803030008030300080303000858
:100070000303000803030008030300080303000848
:100080000303000803030008030300080303000838
:100090000303000803030008030300080303000828
:1000A0000303000803030008030300080303000818
:1000B0000303000803030008030300080303000808
:1000C00003030008030300080303000803030008F8
:1000D00003030008030300080303000803030008E8
:1000E00003030008030300080303000803030008D8
:1000F00003030008030300080303000803030008C8
:1001000003030008030300080303000803030008B7
:100110000303000803030008030300088512000816
:100120000303000803030008030300080303000897
:100130000303000803030008030300080303000887
:100140000303000803030008030300080303000877
:100150000303000803030008030300080303000867
:100160000303000803030008030300080303000857
:100170000303000803030008030300080000000055
:10018000030300080303000800F002F800F03CF845
:100190000AA090E8000C82448344AAF10107DA45E2
:1001A00001D100F031F8AFF2090EBAE80F0013F0F8
:1001B000010F18BFFB1A43F0010318479C1F0000F2
:1001C000BC1F0000103A24BF78C878C1FAD8520783
:1001D00024BF30C830C144BF04680C6070470000C1
:1001E0000023002400250026103A28BF78C1FBD840
:1001F000520728BF30C148BF0B6070471FB501F0E0
:1002000085FF1FBD10B510BD00F061F91146FFF765
:10021000F5FF01F0BBF800F07FF903B4FFF7F2FF40
:1002200003BC00F087F900002C4B19680868B0E89F
:10023000F04F80F30988BFF36F8F4FF0000080F319
:10024000118870470000000008480068006880F3CB
:1002500008884FF0000080F3148862B661B6BFF3DF
:100260004F8FBFF36F8F00DF00BF00BF08ED00E0CE
:10027000DFF80C00016841F470010160704700BFB5
:1002800088ED00E0EFF30980BFF36F8F134B1A681E
:100290001EF0100F08BF20ED108A20E9F04F10600B
:1002A00009B44FF0500080F31188BFF34F8FBFF3B4
:1002B0006F8F01F063FD4FF0000080F3118809BCDF
:1002C00019680868B0E8F04F1EF0100F08BFB0ECD6
:1002D000108A80F30988BFF36F8F704720000020D9
:1002E000EFF3058070470000094880470948004740
:1002F000FEE7FEE7FEE7FEE7FEE7FEE7FEE7FEE7D6
:10030000FEE7FEE704480549054A064B7047000032
:100310007512000889010008B0400020B046002096
:10032000B0420020B042002053EA020C00F0698085
:100330002DE9F04B4FF00006002B1FBFB3FA83F5F9
:1003400003FA05F424FA05F65E4012BF1643B2FA2A
:1003500082F502FA05F4C5F120051EBF22FA05FC5C
:1003600044EA0C04203556EA044C4FEA144418BF02
:10037000641C4FF000084FF00009904271EB030C31
:1003800039D3002919BFB1FA81F701FA07F6B0FA9B
:1003900080F700FA07F6C7F120071EBF20FA07FC16
:1003A00046EA0C062037B6FBF4FCA7EB0507103F26
:1003B00007F01F0BCBF120060CFA0BFB2CFA06F60C
:1003C00044BFB3460026202FA4BF5E464FF0000B6B
:1003D0005BEA060C08BF4FF0010B19EB0B09ABFBF6
:1003E000027C48EB0608C01B06FB02CC0BFB03CCCF
:1003F00071EB0C01C1E70B46024641464846BDE899
:10040000F08B13B54FF000004FF00001AFF3008008
:10041000BDE81C40704710B5203AC0F00B80B1E831
:100420001850203AA0E81850B1E81850A0E8185029
:10043000BFF4F5AF5FEA027C24BFB1E81850A0E832
:10044000185044BF18C918C0BDE810405FEA827C4C
:1004500024BF51F8043B40F8043B08BF7047D20763
:1004600028BF31F8023B48BF11F8012B28BF20F804
:10047000023B48BF00F8012B70474FF0000200B567
:10048000134694469646203922BFA0E80C50A0E8B7
:100490000C50B1F12001BFF4F7AF090728BFA0E865
:1004A0000C5048BF0CC05DF804EB890028BF40F831
:1004B000042B08BF704748BF20F8022B11F0804F73
:1004C00018BF00F8012B704770477047704775469A
:1004D00000F02CF8AE4605006946534620F00700B0
:1004E000854618B020B5FFF70DFFBDE820404FF05E
:1004F00000064FF000074FF000084FF0000B21F00E
:100500000701AC46ACE8C009ACE8C009ACE8C009DA
:10051000ACE8C0098D46704710B50446AFF30080C3
:100520002046BDE81040FFF778BE00000048704745
:100530005040002001491820ABBEFEE72600020013
:100540007047FEE7704700002DE9F84FDFF8BCA1C7
:100550000022012503264FF00F090AF1040BAAF12E
:10056000040E00BF0B6805FA02F42340A34270D1C9
:100570000F7907F00307012F01D0022F16D18768EA
:100580004FEA420806FA08FC27EA0C07D1F80CC02B
:100590000CFA08FC4CEA070CC0F808C04768A743EF
:1005A0000C79C4F3001494403C4344600C79E44358
:1005B000A4070AD0C4684FEA420C06FA0CF7BC4301
:1005C0008F6807FA0CF72743C7600C7904F003041F
:1005D000022C12D1D40800EB840CDCF82040570721
:1005E000FF0E09FA07F824EA0804D1F8108008FA87
:1005F00007F848EA0408CCF8208004684FEA420C67
:1006000006FA0CF7BC430F7907F0030707FA0CF75B
:10061000274307604C6814F4403F70D03C4C276877
:1006200047F480472760246822F0030704F48044DD
:100630000094384C07EB040CDCF8084897074FEAA5
:10064000177809FA08F7BC43334FB84202D10027A4
:1006500024E054E0314FB84201D101271EE0304F71
:10066000B84201D1022719E02E4FB84201D1032729
:1006700014E02D4FB84201D104270FE02B4FB842B0
:1006800001D105270AE02A4FB84201D1062705E02B
:10069000284FB84201D1072700E0082707FA08F7DA
:1006A0002743CCF80878DAF800405746D1F804C060
:1006B0009C435FEACC2C00D51C433C60DBF8004037
:1006C0005F46D1F804C09C435FEA8C2C00D51C43E4
:1006D0003C60DEF800407746D1F804C09C435FEAF6
:1006E0008C3C00D51C433C60084F083F3C68D1F867
:1006F00004C09C435FEACC3C00D51C433C60521CC8
:10070000102AFFF42FAFBDE8F88F0000083C01402D
:100710004438024000300140000002400004024022
:1007200000080240000C0240001002400014024089
:1007300000180240001C0240426921EA02030A40FC
:1007400043EA0241816170470AB18161704709043F
:10075000FBE700000148806870470000100000209F
:1007600002488168027811448160704710000020BF
:100770000B4810B5016841F400710160016841F453
:1007800080610160016841F480710160032000F024
:100790009FF80F2000F006F800F050F8002010BD80
:1007A000003C024030B505461F4887B00024016870
:1007B00041F020010160006806A900F020000090CF
:1007C00001A800F031F90498A8B100F04DF94000FB
:1007D0001649174AB0FBF1F11648491E026040F273
:1007E000E732C0E90324C0E90114846100F036FB5C
:1007F000040003D015E000F037F9E9E70D4800F0F8
:100800005BFB04000DD1372000F034F8102D07D227
:1008100000222946372000F03BF80748056000E039
:10082000012407B0204630BD4038024040420F004E
:1008300000140040DC020020140000200C4882B0AC
:10084000016841F480410160006800F4804000903C
:100850000748001F016841F08051016000680022D4
:1008600000F0805000900F21901E02B000F010B8F0
:1008700044380240002809DB00F01F0201219140AA
:100880004009800000F1E020C0F80011704700002E
:10089000F0B40E4B1B680C46C3F30223C3F10705EB
:1008A000042D00D90425191D072901D2002300E0D9
:1008B000DB1E012606FA05F1491E214099409E40A3
:1008C000761E16403143F0BC00F04FBD0CED00E049
:1008D000064900F0070208684FF6FF03184040EA97
:1008E0000220034A10430860704700000CED00E04E
:1008F0000000FA052DE9F0470E46050065D0DFF847
:100900001481D8F80000F7B200F00700B04207D217
:1009100088F80070D8F8000000F00700B04254D109
:1009200028683D4C810712D5400703D5206840F464
:10093000E05020602878000703D5206840F460402C
:1009400020602068A96820F0F00008432060287823
:10095000C0072DD0304968680839012812D0022814
:1009600013D0032811D00968890700292DDA2168DE
:1009700021F0030101432160FFF7ECFE814641F2C3
:10098000883A0EE009688903EFE709688901ECE716
:10099000FFF7E0FEA0EB0901514502D90320BDE8B5
:1009A000F0872068696800F00C00B0EB810FEFD190
:1009B000D8F80010404601F00701B14207D907708E
:1009C000006800F00700B04201D00120E7E7287876
:1009D000400705D52068E96820F4E050084320600E
:1009E0002878000706D52068296920F4604040EA8D
:1009F000C100206000F048F82168084AC1F30311E3
:100A0000515CC8400649086006480068FFF7CAFE06
:100A10000020C4E7003C02400838024034210008AE
:100A20001C000020140000200F2202600C4A1368F2
:100A300003F003034360136803F0F003836013685B
:100A400003F4E053C36012684FF4E05303EAD202A8
:100A500002610448006800F0070008607047000069
:100A600008380240003C0240044805490068096813
:100A7000044AC1F38221515CC84070471C00002029
:100A80000838024044210008154810B5006810F0ED
:100A90000C02144813D01449042A0FD0082A0ED18E
:100AA0000F4C241F2268236802F03F025B0207D527
:100AB0002068C0F38810A0FB010106E0084610BDC5
:100AC0002168C1F38811A1FB00010023FFF72CFC72
:100AD0002168C1F30141491C4900B0FBF1F010BD90
:100AE000083802400024F40040787D012DE9F84FD9
:100AF00004006ED02078DFF84C93C007A9F10405FC
:100B00004AD009F104000168C1F38101012908D02C
:100B10000068C0F3810002280AD1D9F80000400221
:100B200006D52868800337D560680028E1D033E017
:100B30006068B0F5803F10D0B0F5A02F286810D0C5
:100B400020F480302860286820F4802028606068C5
:100B5000A8B1FFF7FFFD06460DE0286840F480309D
:100B6000F4E740F480202860F7E700BFFFF7F2FDCC
:100B7000801B642873D828688003F7D50CE0FFF742
:100B8000E9FD064605E000BFFFF7E4FD801B642891
:100B9000F0D828688003F7D42078DFF8AC8280078B
:100BA0004FF0000A3ED5A748001D016811F00C0F58
:100BB00008D00068C0F3810002280BD1D9F80000EA
:100BC000400207D42868800716D5E068012800D1C4
:100BD00012E033E1E068B8B10120C8F80000FFF787
:100BE000B9FD064605E000BFFFF7B4FD801B0228F3
:100BF000C0D828688007F7D52868216920F0F80058
:100C000040EAC10028600DE0C8F800A0FFF7A2FD8F
:100C1000064604E0FFF79EFD801B02281FD82868C7
:100C20008007F7D42078000722D5864F874861696E
:100C3000703771B101210160FFF78CFD064604E0B9
:100C4000FFF788FD801B022809D838688007F7D590
:100C50000EE0C0F800A0FFF77DFD064605E082E04B
:100C6000FFF778FD801B02287DD838688007F7D40D
:100C70002078400768D5DFF8CCB100270BF13C0B9A
:100C8000DBF80000C0000BD4DBF8001041F080510D
:100C9000CBF80010DBF80000012700F08050009036
:100CA0006B4E3068C00510D4306840F480703060FE
:100CB000FFF750FD009005E0FFF74CFD0099401A4A
:100CC000022850D83068C005F6D55E4EA0686C3654
:100CD00001280FD00528306810D020F001003060C6
:100CE000306820F004003060A068B8B1FFF732FD32
:100CF00000900FE0306840F00100F4E740F004009D
:100D00003060F7E7FFF726FD0099411A41F288307D
:100D1000814266D830688007F4D50EE0FFF71AFDEF
:100D2000009007E0FFF716FD0099411A41F2883064
:100D3000814256D830688007F4D42FB1DBF8001018
:100D400021F08051CBF80010A069C8B33D49091DBE
:100D50000968C1F3810102294AD00228504607D010
:100D6000C8F8600000E03CE0FFF7F4FC04463BE01C
:100D70004746C8F86000FFF7EDFC064605E000BFF7
:100D8000FFF7E8FC801B02282BD828688001F7D4E5
:100D9000D4E907010843A16A2E4A490802EB014140
:100DA000626A41EA8211084394F82C1040EA01611A
:100DB000C9F8001001203866FFF7CCFC044606E0B5
:100DC0003EE000BFFFF7C6FC001B022809D82868D8
:100DD0008001F7D534E000BFFFF7BCFC001B022800
:100DE00002D90320BDE8F88F28688001F4D427E0F9
:100DF0000128F7D0D9F80000E26900F4800191429F
:100E00001CD1226A00F03F01914217D147F6C07110
:100E1000626A0140B1EB821F10D1A26A4FF0FF332A
:100E200000F4403103EB5202B1EB024F06D194F8CB
:100E30002C1000F07060B0EB016F01D00120D1E701
:100E40000020CFE70438024000004742800E4742AE
:100E5000007000400000FFFF7047704710B50400AD
:100E600003D094F83D0010B107E0012010BD002030
:100E700084F83C00204600F01EF8022084F83D0073
:100E8000211D206800F004FA012084F8460084F84F
:100E90003E0084F83F0084F8400084F8410084F864
:100EA000420084F8430084F8440084F8450084F844
:100EB0003D00002010BD704790F83D10012901D081
:100EC00001207047022180F83D100168CA6842F095
:100ED0000102CA6000681149884214D0B0F1804F05
:100EE00011D00F4988420ED00E4988420BD00E49CE
:100EF000884208D00D49884205D00D49884202D069
:100F00000C49884204D1816801F00701062903D009
:100F1000016841F0010101600020704700000140BC
:100F20000004004000080040000C004000040140A4
:100F3000004001400018004070472DE9F041044690
:100F40000068C66805694FF00007A90713D5B10707
:100F500011D5F91E01610120207720688069800782
:100F6000204602D0FFF7E8FF04E000F07EF82046BC
:100F700000F07CF82777680716D5700714D521682C
:100F80006FF004000861022020772068806910F467
:100F9000407F204602D0FFF7CFFF04E000F065F865
:100FA000204600F063F82777280715D5300713D5BA
:100FB00021686FF008000861042020772068C0696C
:100FC0008007204602D0FFF7B7FF04E000F04DF89D
:100FD000204600F04BF82777E80616D5F00614D522
:100FE00021686FF010000861082020772068C06930
:100FF00010F4407F204602D0FFF79EFF04E000F08F
:1010000034F8204600F032F82777E80708D0F007D8
:1010100006D021686FF001000861204600F028F832
:10102000280608D5300606D521686FF080000861D3
:101030002046FFF711FF680608D5700606D521681F
:101040006FF040000861204600F01CF8A8060AD5A1
:10105000B00608D521686FF0200008612046BDE881
:10106000F041FFF7FABEBDE8F0817047704700001D
:1010700000680349884201D1FFF772BB7047000046
:10108000001400407047FEE7F0B587B014216846B1
:10109000FFF7F3F919480024016841F0800101606D
:1010A000016801F080010591016841F04001016093
:1010B0000068134E00F0400005902246CC213046D7
:1010C000FFF742FB0F4F0022C0213846FFF73CFBE1
:1010D000CC2000900125CDE90154694630460394A7
:1010E000FFF732FAC0200090CDE901546946384636
:1010F0000394FFF729FA07B0F0BD00003038024032
:10110000001C024000180240FEE7FEE7012000F04C
:10111000A1F9FBE700241F4D4FF47A771E4E12E031
:10112000686800F0C5FD0EE00A2C02D00E2C0AD132
:1011300006E0A86838B100F0F1FC0020A86002E0E9
:10114000686800F041FD04F0010204213046FFF719
:10115000FBFAC4F3400208213046FFF7F5FAC4F366
:10116000800240213046FFF7EFFAC4F3C00280212D
:101170003046FFF7E9FA641CE4B20F2C04D90024CE
:10118000384600F0A5FCDEE7384600F0A1FC052C4F
:10119000CAD1C5E700000020001C0240044C4021D9
:1011A0002046FFF7C9FA642000F092FCF7E7000040
:1011B00000180240044C80212046FFF7BDFA4B2066
:1011C00000F086FCF7E700000018024010B5502040
:1011D00080F31188BFF34F8FBFF36F8F00F0CEFE07
:1011E00018B104494FF080500860002080F3118846
:1011F00010BD000004ED00E010B592B0302168464B
:10120000FFF73BF914210CA8FFF737F91748002422
:10121000016841F080510160006800F08050119039
:101220001348016841F4804101600068069400F4AD
:101230008040119002200090012003901020049023
:101240006846FFF753FC08B172B6FEE70F20CDE900
:101250000C040E940F9400210CA81094FFF74AFB85
:10126000002801D072B6FEE712B010BD403802402F
:10127000007000400248016841F47001016070474D
:1012800088ED00E00148FFF758BE0000DC020020B6
:10129000F0B50268294C2A4D2A4E2B4F2B4B4FF0AC
:1012A000804CA04209D0604507D0A84205D0B0428A
:1012B00003D0B84201D0984204D122F0700E4A689F
:1012C00042EA0E02A0421BD0604519D0A84217D0B6
:1012D000B04215D0B84213D0984211D01C4DA8424C
:1012E0000ED01C4DA8420BD01B4DA84208D01B4D60
:1012F000A84205D01A4DA84202D01A4DA84203D1E7
:1013000022F44075CA682A434D6922F080022A43BC
:1013100002608A68C2620A688262A04201D0984272
:1013200001D109690163012141610169C90703D044
:10133000016921F001010161F0BD000000000140E0
:101340000004004000080040000C00400004014080
:1013500000400140004401400048014000180040A6
:10136000001C004000200040FEE70907090E00288D
:1013700004DB00F1E02080F80014704700F00F005B
:1013800000F1E02080F8141D704700008AB0FFF7DC
:10139000EFF9FFF731FFFFF777FE18490120CDE99C
:1013A00000010023802216A1194800F08FFD134987
:1013B0000220091DCDE900010023802215A11A4851
:1013C00000F084FD0D4903200831CDE90001002320
:1013D0004FF4807215A11A4800F078FD1C221949BB
:1013E00002A8FFF718F8002102A800F03AF8034914
:1013F000091F086000F026FCFEE700000400002042
:101400004C6F775072696F726974795461736B00B5
:101410009D1100084D6964646C655072696F726952
:1014200074795461736B0000B511000848696768EE
:101430005072696F726974795461736B00000000B7
:10144000151100081821000801460020842900D049
:10145000C81C704710B500B9012000F039FB00200E
:1014600010BD7FB50D4604464169B0F9080081B151
:10147000A16971B1FFF7E8FFD4E905128DE8070013
:10148000D4E900102B46226900F04DFD039004B012
:1014900070BDFFF7D9FF03A9CDE90001208A2B46D3
:1014A00082B2D4E9001000F011FD012801D0002023
:1014B000EDE70398EBE700002DE9F041184C0F46EB
:1014C0000546E6682068001D00F03AFA38B9206841
:1014D00090F82C1001208840216981432161681C0B
:1014E00007D137B12168BDE8F0410E48091D00F071
:1014F0006BBA20683544B5424560216805D2A06BBF
:10150000BDE8F041091D00F047BA606B091D00F00D
:1015100043FAA06A854200D2A562BDE8F0810000CE
:10152000200000203C0400202DE9F041054600F099
:1015300057FA2D4CA068401CA06020682B4F10B1BA
:10154000606938B32CE02560A068012828D1002606
:1015500006EB860007EB800000F010FA761C0A2EDE
:10156000F6D32248C83000F009FA2048DC3000F0F9
:1015700005FA1E48F03000F001FA1D4800F0FEF9AF
:101580001B48143000F0FAF919483C3860631430F5
:10159000A06305E02068E96AC06A884200D8256037
:1015A000606A401C6062E96A012022698840104339
:1015B000206101EB810007EB8000291D00F004FA97
:1015C00000F02EFA606900280CD02068E96AC06A31
:1015D000884207D207494FF080500860BFF34F8F11
:1015E000BFF36F8FBDE8F0812000002024030020AE
:1015F0002804002004ED00E010B5044690F85100E6
:1016000058B101280CD002280FD0502080F3118847
:10161000BFF34F8FBFF36F8FFEE7206B00F014FA1C
:101620002046BDE8104000F00FBA10BD10484FF43E
:101630007051420706D0C01D0D4920F00700411A25
:10164000C1F570510B4A00230144C2E90003083977
:10165000183A21F0070111604B600B600B1AC0E9CA
:10166000001393604FF000405360506170470000DA
:101670005004002074000020144E154CA6F582770B
:101680004FF08058DFF84C9012E000BF00F0A8F94E
:10169000F068C568281D00F053F9A068401EA060DE
:1016A0006068401E606000F0BBF92846FFF7A4FFA9
:1016B00060680028EAD138680128F9D9C9F80080A3
:1016C000BFF34F8FBFF36F8FF2E7000028040020B5
:1016D0002000002004ED00E02DE9F0479A46DDE906
:1016E000098481466FF00303206B03EB82021044F0
:1016F000089E20F00707780707D0502080F3118854
:10170000BFF34F8FBFF36F8FFEE7002561B100205D
:1017100023180A5C83F834200A5C12B1401C10289C
:10172000F6D384F8435001E084F834500A2E00D3F5
:101730000926E662C4E91165201D00F02AF904F1CA
:10174000180000F026F92461C6F10A006462A06165
:10175000E56484F8505052464946384600F0DAF8BD
:101760002060B8F1000F01D0C8F80040BDE8F08754
:1017700030B5114900E011460A688242FBD34B683C
:101780005C18844203D140681844486008464368A6
:101790001C18944209D1084C183C2468A24209D074
:1017A00052681A4442600A6812680260814200D09E
:1017B000086030BD0460F9E7740000200648416B02
:1017C000096829B1416BC968C96849688162704775
:1017D0004FF0FF31FAE70000200000200848406881
:1017E000401C4FF0500080F3118804D0BFF34F8F9E
:1017F000BFF36F8FFEE7BFF34F8FBFF36F8FFEE72F
:101800007C000020002150B10A4B42699A420FD15E
:10181000806AA3F1280290420AD040B108E050202B
:1018200080F31188BFF34F8FBFF36F8FFEE7012165
:10183000084670473C0400202DE9F041054600278A
:1018400000F094FA324E306808B9FFF7EFFE706985
:1018500005424ED1C5B3083568070ED005F0070024
:10186000C0F108000544680707D0502080F31188B4
:10187000BFF34F8FBFF36F8FFEE72DB370688542C4
:1018800037D82348183001460C6801E020460C4642
:101890006168A94202D221680029F7D131688C42DF
:1018A00027D007682168016060680837411B10294C
:1018B0000FD96019420708D0502080F31188BFF378
:1018C0004F8FBFF36F8FFEE713E041606560FFF756
:1018D0004FFF61687068401A7060B268904200D231
:1018E000B060706901430020C4E90001F068401C49
:1018F000F06000F0A9FB780707D0502080F3118832
:10190000BFF34F8FBFF36F8FFEE73846BDE8F0811E
:101910005C00002010B5031F4FF080741C601B1F7B
:1019200021F001011960191F044B0B6014390A6082
:10193000091F6FF0020244380A6010BDDD1700086D
:10194000D0E9013201699A60D0E901235A604A68FE
:10195000824201D182684A60002202610868401E0A
:101960000860086870470000034B036003F15400EF
:1019700008608020106070478800002000F1080196
:101980004FF0FF32C0E90112C16001610021016026
:10199000704700210161704730B50B685A1C02D0B6
:1019A00000F1080202E0026904E02246546825685A
:1019B0009D42FAD953684B6099608A605160086112
:1019C0000168491C016030BD42684A6093688B60C1
:1019D00093685960916008610168491C0160704713
:1019E000502080F31188BFF34F8FBFF36F8F0A49E8
:1019F0004868401C486001280CD10848006810F075
:101A0000FF0F07D0502080F31188BFF34F8FBFF333
:101A10006F8FFEE7704700007C00002004ED00E0BF
:101A20000849486828B1401E486001D180F31188F8
:101A30007047502080F31188BFF34F8FBFF36F8F33
:101A4000FEE700007C00002070B500282AD0164D6B
:101A5000A0F1080460686969084207D1502080F34A
:101A60001188BFF34F8FBFF36F8FFEE722683AB143
:101A7000502080F31188BFF34F8FBFF36F8FFEE7C5
:101A80008843606000F072F96068696808446860C3
:101A90002046FFF76DFE2869401C2861BDE87040B4
:101AA00000F0D2BA70BD00005C0000204FF0E020D2
:101AB00000210161816105494FF47A720968B1FB27
:101AC000F2F1491E41610721016170471C000020AD
:101AD00010B5020014D00F48006B38B1502080F3CD
:101AE0001188BFF34F8FBFF36F8FFEE700F03EF911
:101AF00000211046FFF7E0FC00F0A6FA002807D10D
:101B000005494FF080500860BFF34F8FBFF36F8FD0
:101B100010BD00002000002004ED00E070B5054677
:101B2000FFF75EFF244C05B92568281DFFF708FF65
:101B300058B9E86A214A00EB800152F8211021B916
:101B400001218140206988432061A86A18B105F10C
:101B50001800FFF7F5FE606A401C6062206885424D
:101B600007D1291D1648FFF72FFF6068401C6060F1
:101B700007E0A068401EA0602846FFF73DFDFFF784
:101B80001DFEFFF74DFF6069002814D020688542D4
:101B900011D1206B38B1502080F31188BFF34F8FE3
:101BA000BFF36F8FFEE707494FF080500860BFF327
:101BB0004F8FBFF36F8F70BD2000002024030020E3
:101BC0002804002004ED00E070B504002BD01A4D6D
:101BD000286884422FD0FFF703FF2046FFF712FE4C
:101BE000E8B1201DFFF7ACFEE06A01212A698140BF
:101BF00011432961114900EB800001EB8000211D98
:101C0000FFF7E2FEE06A2968C96A884207D30C49F7
:101C10004FF080500860BFF34F8FBFF36F8FBDE868
:101C20007040FFF7FDBE502080F31188BFF34F8F47
:101C3000BFF36F8FFEE770BD20000020240300205B
:101C400004ED00E010B586B00024039405AA04A9B1
:101C500003A80494FFF788FEDDE903010094CDE9B1
:101C6000011000230EA11048059A00F05CF90F49FD
:101C70000028C86211D0502080F31188BFF34F8F25
:101C8000BFF36F8F4FF0FF30886201204861CC6056
:101C900006B0BDE8104000F09FB806B010BD0000CF
:101CA00049444C450000000079160008200000203F
:101CB00070B50446FFF794FE284D04B92C68201D2A
:101CC000FFF73EFE58B9E06A254A00EB800152F862
:101CD000211021B901218140286988432861A06A27
:101CE00018B104F11800FFF72BFE211D1D48FFF766
:101CF0006BFE94F850000026012801D184F8506052
:101D0000FFF78EFE686928B1FFF76AFEFFF756FD00
:101D1000FFF786FE2868844213D1686990B1286B6A
:101D200038B1502080F31188BFF34F8FBFF36F8F0E
:101D3000FEE70D494FF080500860BFF34F8FBFF3AF
:101D40006F8F70BD07480068A968884201D12E6076
:101D500070BDBDE8704000F011B800002000002008
:101D6000240300203C04002004ED00E00248016B45
:101D7000491C016370470000200000201448016BDB
:101D800011B10121C16170470021C1610169B1FA3E
:101D900081F1C1F11F0101EB81020E4951F822309E
:101DA0006BB101EB820101F108034A6852684A6095
:101DB0009A4201D152684A60D16801607047502050
:101DC00080F31188BFF34F8FBFF36F8FFEE70000E2
:101DD00020000020240300201CB537480168374A42
:101DE000914207D1502080F31188BFF34F8FBFF38A
:101DF0006F8FFEE700683149491E884207D15020A5
:101E000080F31188BFF34F8FBFF36F8FFEE72C492C
:101E100008780190FF20087008788DF800009DF880
:101E200000009DF8002000F0F000904207D0502004
:101E300080F31188BFF34F8FBFF36F8FFEE79DF8DC
:101E40000000204C00F0500020700720A06005E04A
:101E50009DF8002052008DF80020401E9DF80020C3
:101E60001206F5D4A060032807D0502080F3118813
:101E7000BFF34F8FBFF36F8FFEE74FF44070A0604A
:101E8000019808700C482030016841F4700101602D
:101E9000016841F070410160FFF708FE00206060BA
:101EA000FEF7E6F90848016841F040410160FEF79D
:101EB000CBF900201CBD000000ED00E071C20F4115
:101EC00000E400E07C00002034EF00E02DE9FF5F3B
:101ED0008346DDE90E87994616468A469000FFF74D
:101EE000ABFC05001CD05420FFF7A6FC040014D066
:101EF0000020256384F85100CDE90240CDE9008738
:101F00004B46324651465846FFF7E6FB2046FFF760
:101F10000BFB012004B0BDE8F09F2846FFF794FDBD
:101F20004FF0FF30F6E7F0B585B0DDE90B640A9DB0
:101F3000A6B1DCB1542700972663022684F85160CD
:101F4000002604AFCDE90246CDE90057FFF7C4FBF8
:101F50002046FFF7E9FA049805B0F0BD502080F361
:101F60001188BFF34F8FBFF36F8FFEE7502080F3D0
:101F70001188BFF34F8FBFF36F8FFEE72DE9F0415C
:101F80002F4C0026206B28B1A069401CA061304670
:101F9000BDE8F081E5686D1CE56013D1606B0068F9
:101FA00038B1502080F31188BFF34F8FBFF36F8F8C
:101FB000FEE7606BA16B6163A063206A401C206236
:101FC000FFF7FCFBA06ADFF87C80854209D3606BD9
:101FD0000068A0B1606BC068C7687868854211D29C
:101FE000A0622068C06A00EB800158F82100012837
:101FF00000D90126E0690028C9D00126C7E74FF0C3
:10200000FF30EDE7381DFFF79BFCB86A18B107F108
:102010001800FFF795FCF96A0120226988401043F7
:10202000206101EB810108EB8100391DFFF7CCFC39
:10203000F86A2168C96A8842C9D30126C7E7000047
:1020400020000020240300202DE9F0472C4D00241F
:102050002746286B38B1FFF7C3FC286B401E286366
:10206000286B40B146E0502080F31188BFF34F8FBA
:10207000BFF36F8FFEE7A968224E0120D1B3A6F10E
:10208000F00980463068E8B1F068C46804F11800CF
:10209000FFF756FC201DFFF753FCE06A2A6908FA97
:1020A00000F11143296100EB800109EB8100211D42
:1020B000FFF78AFCE06A2968C96A8842E2D3C5F85A
:1020C0001C80DFE70CB1FFF779FBAC6944B14646F1
:1020D000FFF754FF00B1EE61641EF9D10020A86142
:1020E000E86938B10849012738070860BFF34F8F06
:1020F000BFF36F8FFFF794FC3846BDE8F087000010
:10210000200000201404002004ED00E04FF0407097
:10211000E1EE100A704700004C2100080D11000884
:10212000000000000000000080000000000000002F
:102130000000000000000000000000000102030495
:1021400006070809000000000102030464656661D7
:10215000756C745461736B007821000800000020D6
:1021600088000000C4010008002200088800002048
:1021700028460000E0010008000000000000000008
:10218000000000000000000001000000100000003E
:10219000000000000024F400000000000000000027
:1021A000000000000000000000000000000000002F
:1021B000000000000000000000000000000000001F
:1021C000000000000000000000000000000000000F
:1021D00000000000000000000000000000000000FF
:1021E00000000000000000000000000000000000EF
:1021F0000000000000000000AAAAAAAA0000000037
:040000050800018965
:00000001FF
